{
  "contractName": "BZxOwnable",
  "abi": [
    {
      "constant": true,
      "inputs": [],
      "name": "owner",
      "outputs": [
        {
          "name": "",
          "type": "address"
        }
      ],
      "payable": false,
      "stateMutability": "view",
      "type": "function"
    },
    {
      "constant": true,
      "inputs": [],
      "name": "bZxContractAddress",
      "outputs": [
        {
          "name": "",
          "type": "address"
        }
      ],
      "payable": false,
      "stateMutability": "view",
      "type": "function"
    },
    {
      "anonymous": false,
      "inputs": [
        {
          "indexed": true,
          "name": "previousBZxContract",
          "type": "address"
        },
        {
          "indexed": true,
          "name": "newBZxContract",
          "type": "address"
        }
      ],
      "name": "BZxOwnershipTransferred",
      "type": "event"
    },
    {
      "anonymous": false,
      "inputs": [
        {
          "indexed": true,
          "name": "previousOwner",
          "type": "address"
        },
        {
          "indexed": true,
          "name": "newOwner",
          "type": "address"
        }
      ],
      "name": "OwnershipTransferred",
      "type": "event"
    },
    {
      "constant": false,
      "inputs": [
        {
          "name": "newBZxContractAddress",
          "type": "address"
        }
      ],
      "name": "transferBZxOwnership",
      "outputs": [],
      "payable": false,
      "stateMutability": "nonpayable",
      "type": "function"
    },
    {
      "constant": false,
      "inputs": [
        {
          "name": "newOwner",
          "type": "address"
        }
      ],
      "name": "transferOwnership",
      "outputs": [],
      "payable": false,
      "stateMutability": "nonpayable",
      "type": "function"
    }
  ],
  "bytecode": "0x6080604052336000806101000a81548173ffffffffffffffffffffffffffffffffffffffff021916908373ffffffffffffffffffffffffffffffffffffffff160217905550610612806100536000396000f3fe608060405234801561001057600080fd5b506004361061004c5760003560e01c806372e98a79146100515780638da5cb5b14610095578063e4a72b13146100df578063f2fde38b14610129575b600080fd5b6100936004803603602081101561006757600080fd5b81019080803573ffffffffffffffffffffffffffffffffffffffff16906020019092919050505061016d565b005b61009d610365565b604051808273ffffffffffffffffffffffffffffffffffffffff1673ffffffffffffffffffffffffffffffffffffffff16815260200191505060405180910390f35b6100e761038a565b604051808273ffffffffffffffffffffffffffffffffffffffff1673ffffffffffffffffffffffffffffffffffffffff16815260200191505060405180910390f35b61016b6004803603602081101561013f57600080fd5b81019080803573ffffffffffffffffffffffffffffffffffffffff1690602001909291905050506103b0565b005b6000809054906101000a900473ffffffffffffffffffffffffffffffffffffffff1673ffffffffffffffffffffffffffffffffffffffff163373ffffffffffffffffffffffffffffffffffffffff16146101c657600080fd5b600073ffffffffffffffffffffffffffffffffffffffff168173ffffffffffffffffffffffffffffffffffffffff161415801561025057506000809054906101000a900473ffffffffffffffffffffffffffffffffffffffff1673ffffffffffffffffffffffffffffffffffffffff168173ffffffffffffffffffffffffffffffffffffffff1614155b6102a5576040517f08c379a00000000000000000000000000000000000000000000000000000000081526004018080602001828103825260228152602001806105c56022913960400191505060405180910390fd5b8073ffffffffffffffffffffffffffffffffffffffff16600160009054906101000a900473ffffffffffffffffffffffffffffffffffffffff1673ffffffffffffffffffffffffffffffffffffffff167f275474e6a50395ffcbf8e9ecf8250fc1a6baa73c802ea8809292f5021c9980bf60405160405180910390a380600160006101000a81548173ffffffffffffffffffffffffffffffffffffffff021916908373ffffffffffffffffffffffffffffffffffffffff16021790555050565b6000809054906101000a900473ffffffffffffffffffffffffffffffffffffffff1681565b600160009054906101000a900473ffffffffffffffffffffffffffffffffffffffff1681565b6000809054906101000a900473ffffffffffffffffffffffffffffffffffffffff1673ffffffffffffffffffffffffffffffffffffffff163373ffffffffffffffffffffffffffffffffffffffff161461040957600080fd5b600073ffffffffffffffffffffffffffffffffffffffff168173ffffffffffffffffffffffffffffffffffffffff16141580156104945750600160009054906101000a900473ffffffffffffffffffffffffffffffffffffffff1673ffffffffffffffffffffffffffffffffffffffff168173ffffffffffffffffffffffffffffffffffffffff1614155b610506576040517f08c379a000000000000000000000000000000000000000000000000000000000815260040180806020018281038252601f8152602001807f7472616e736665724f776e6572736869703a3a756e617574686f72697a65640081525060200191505060405180910390fd5b8073ffffffffffffffffffffffffffffffffffffffff166000809054906101000a900473ffffffffffffffffffffffffffffffffffffffff1673ffffffffffffffffffffffffffffffffffffffff167f8be0079c531659141344cd1fd0a4f28419497f9722a3daafe3b4186f6b6457e060405160405180910390a3806000806101000a81548173ffffffffffffffffffffffffffffffffffffffff021916908373ffffffffffffffffffffffffffffffffffffffff1602179055505056fe7472616e73666572425a784f776e6572736869703a3a756e617574686f72697a6564a165627a7a72305820aad2a43683465bb8b671ef1332a59b0ee95ed6abf8b7cc7eeb9566296144121d0029",
  "source": "/**\n * Copyright 2017-2019, bZeroX, LLC. All Rights Reserved.\n * Licensed under the Apache License, Version 2.0.\n */\n\npragma solidity 0.5.8;\n\nimport \"../openzeppelin-solidity/Ownable.sol\";\n\n\n// This provides a gatekeeping modifier for functions that can only be used by the bZx contract\n// Since it inherits Ownable it provides typical ownership functionality with a slight modification to the transferOwnership function\n// Setting owner and bZxContractAddress to the same address is not supported.\ncontract BZxOwnable is Ownable {\n\n    address public bZxContractAddress;\n\n    event BZxOwnershipTransferred(address indexed previousBZxContract, address indexed newBZxContract);\n\n    // modifier reverts if bZxContractAddress isn't set\n    modifier onlyBZx() {\n        require(msg.sender == bZxContractAddress, \"only bZx contracts can call this function\");\n        _;\n    }\n\n    /**\n    * @dev Allows the current owner to transfer the bZx contract owner to a new contract address\n    * @param newBZxContractAddress The bZx contract address to transfer ownership to.\n    */\n    function transferBZxOwnership(address newBZxContractAddress) public onlyOwner {\n        require(newBZxContractAddress != address(0) && newBZxContractAddress != owner, \"transferBZxOwnership::unauthorized\");\n        emit BZxOwnershipTransferred(bZxContractAddress, newBZxContractAddress);\n        bZxContractAddress = newBZxContractAddress;\n    }\n\n    /**\n    * @dev Allows the current owner to transfer control of the contract to a newOwner.\n    * @param newOwner The address to transfer ownership to.\n    * This overrides transferOwnership in Ownable to prevent setting the new owner the same as the bZxContract\n    */\n    function transferOwnership(address newOwner) public onlyOwner {\n        require(newOwner != address(0) && newOwner != bZxContractAddress, \"transferOwnership::unauthorized\");\n        emit OwnershipTransferred(owner, newOwner);\n        owner = newOwner;\n    }\n}",
  "sourcePath": "/workspace/Contract-Fillable-0x-Liquidity-For-Fulcrum/blockchain/contracts/modifiers/BZxOwnable.sol",
  "compiler": {
    "name": "solc",
    "version": "0.5.8+commit.23d335f2.Emscripten.clang"
  },
  "schemaVersion": "3.0.11",
  "updatedAt": "2019-08-11T05:26:14.335Z",
  "devdoc": {
    "methods": {
      "transferBZxOwnership(address)": {
        "details": "Allows the current owner to transfer the bZx contract owner to a new contract address",
        "params": {
          "newBZxContractAddress": "The bZx contract address to transfer ownership to."
        }
      },
      "transferOwnership(address)": {
        "details": "Allows the current owner to transfer control of the contract to a newOwner.",
        "params": {
          "newOwner": "The address to transfer ownership to. This overrides transferOwnership in Ownable to prevent setting the new owner the same as the bZxContract"
        }
      }
    }
  },
  "userdoc": {
    "methods": {}
  }
}