{
  "contractName": "BZxTo0xV2",
  "abi": [
    {
      "constant": true,
      "inputs": [],
      "name": "DEBUG",
      "outputs": [
        {
          "name": "",
          "type": "bool"
        }
      ],
      "payable": false,
      "stateMutability": "view",
      "type": "function"
    },
    {
      "constant": true,
      "inputs": [],
      "name": "erc20ProxyContract",
      "outputs": [
        {
          "name": "",
          "type": "address"
        }
      ],
      "payable": false,
      "stateMutability": "view",
      "type": "function"
    },
    {
      "constant": false,
      "inputs": [
        {
          "name": "newBZxContractAddress",
          "type": "address"
        }
      ],
      "name": "transferBZxOwnership",
      "outputs": [],
      "payable": false,
      "stateMutability": "nonpayable",
      "type": "function"
    },
    {
      "constant": true,
      "inputs": [],
      "name": "exchangeV2Contract",
      "outputs": [
        {
          "name": "",
          "type": "address"
        }
      ],
      "payable": false,
      "stateMutability": "view",
      "type": "function"
    },
    {
      "constant": true,
      "inputs": [],
      "name": "owner",
      "outputs": [
        {
          "name": "",
          "type": "address"
        }
      ],
      "payable": false,
      "stateMutability": "view",
      "type": "function"
    },
    {
      "constant": true,
      "inputs": [],
      "name": "zrxTokenContract",
      "outputs": [
        {
          "name": "",
          "type": "address"
        }
      ],
      "payable": false,
      "stateMutability": "view",
      "type": "function"
    },
    {
      "constant": true,
      "inputs": [],
      "name": "bZxContractAddress",
      "outputs": [
        {
          "name": "",
          "type": "address"
        }
      ],
      "payable": false,
      "stateMutability": "view",
      "type": "function"
    },
    {
      "constant": false,
      "inputs": [
        {
          "name": "newOwner",
          "type": "address"
        }
      ],
      "name": "transferOwnership",
      "outputs": [],
      "payable": false,
      "stateMutability": "nonpayable",
      "type": "function"
    },
    {
      "inputs": [
        {
          "name": "_exchangeV2",
          "type": "address"
        },
        {
          "name": "_zrxToken",
          "type": "address"
        },
        {
          "name": "_proxy",
          "type": "address"
        }
      ],
      "payable": false,
      "stateMutability": "nonpayable",
      "type": "constructor"
    },
    {
      "payable": false,
      "stateMutability": "nonpayable",
      "type": "fallback"
    },
    {
      "anonymous": false,
      "inputs": [
        {
          "indexed": false,
          "name": "makerAssetFilledAmount",
          "type": "uint256"
        },
        {
          "indexed": false,
          "name": "takerAssetFilledAmount",
          "type": "uint256"
        },
        {
          "indexed": false,
          "name": "makerFeePaid",
          "type": "uint256"
        },
        {
          "indexed": false,
          "name": "takerFeePaid",
          "type": "uint256"
        }
      ],
      "name": "LogFillResults",
      "type": "event"
    },
    {
      "anonymous": false,
      "inputs": [
        {
          "indexed": true,
          "name": "previousBZxContract",
          "type": "address"
        },
        {
          "indexed": true,
          "name": "newBZxContract",
          "type": "address"
        }
      ],
      "name": "BZxOwnershipTransferred",
      "type": "event"
    },
    {
      "anonymous": false,
      "inputs": [
        {
          "indexed": true,
          "name": "previousOwner",
          "type": "address"
        },
        {
          "indexed": true,
          "name": "newOwner",
          "type": "address"
        }
      ],
      "name": "OwnershipTransferred",
      "type": "event"
    },
    {
      "constant": false,
      "inputs": [
        {
          "name": "trader",
          "type": "address"
        },
        {
          "name": "vaultAddress",
          "type": "address"
        },
        {
          "name": "sourceTokenAmountToUse",
          "type": "uint256"
        },
        {
          "components": [
            {
              "name": "makerAddress",
              "type": "address"
            },
            {
              "name": "takerAddress",
              "type": "address"
            },
            {
              "name": "feeRecipientAddress",
              "type": "address"
            },
            {
              "name": "senderAddress",
              "type": "address"
            },
            {
              "name": "makerAssetAmount",
              "type": "uint256"
            },
            {
              "name": "takerAssetAmount",
              "type": "uint256"
            },
            {
              "name": "makerFee",
              "type": "uint256"
            },
            {
              "name": "takerFee",
              "type": "uint256"
            },
            {
              "name": "expirationTimeSeconds",
              "type": "uint256"
            },
            {
              "name": "salt",
              "type": "uint256"
            },
            {
              "name": "makerAssetData",
              "type": "bytes"
            },
            {
              "name": "takerAssetData",
              "type": "bytes"
            }
          ],
          "name": "orders0x",
          "type": "tuple[]"
        },
        {
          "name": "signatures0x",
          "type": "bytes[]"
        }
      ],
      "name": "take0xV2Trade",
      "outputs": [
        {
          "name": "destTokenAddress",
          "type": "address"
        },
        {
          "name": "destTokenAmount",
          "type": "uint256"
        },
        {
          "name": "sourceTokenUsedAmount",
          "type": "uint256"
        }
      ],
      "payable": false,
      "stateMutability": "nonpayable",
      "type": "function"
    },
    {
      "constant": true,
      "inputs": [
        {
          "name": "numerator",
          "type": "uint256"
        },
        {
          "name": "denominator",
          "type": "uint256"
        },
        {
          "name": "target",
          "type": "uint256"
        }
      ],
      "name": "getPartialAmount",
      "outputs": [
        {
          "name": "",
          "type": "uint256"
        }
      ],
      "payable": false,
      "stateMutability": "pure",
      "type": "function"
    },
    {
      "constant": true,
      "inputs": [
        {
          "components": [
            {
              "name": "makerAddress",
              "type": "address"
            },
            {
              "name": "takerAddress",
              "type": "address"
            },
            {
              "name": "feeRecipientAddress",
              "type": "address"
            },
            {
              "name": "senderAddress",
              "type": "address"
            },
            {
              "name": "makerAssetAmount",
              "type": "uint256"
            },
            {
              "name": "takerAssetAmount",
              "type": "uint256"
            },
            {
              "name": "makerFee",
              "type": "uint256"
            },
            {
              "name": "takerFee",
              "type": "uint256"
            },
            {
              "name": "expirationTimeSeconds",
              "type": "uint256"
            },
            {
              "name": "salt",
              "type": "uint256"
            },
            {
              "name": "makerAssetData",
              "type": "bytes"
            },
            {
              "name": "takerAssetData",
              "type": "bytes"
            }
          ],
          "name": "order",
          "type": "tuple"
        }
      ],
      "name": "getV2Tokens",
      "outputs": [
        {
          "name": "makerTokenAddress",
          "type": "address"
        },
        {
          "name": "takerTokenAddress",
          "type": "address"
        }
      ],
      "payable": false,
      "stateMutability": "pure",
      "type": "function"
    },
    {
      "constant": false,
      "inputs": [
        {
          "name": "_exchange",
          "type": "address"
        }
      ],
      "name": "set0xV2Exchange",
      "outputs": [],
      "payable": false,
      "stateMutability": "nonpayable",
      "type": "function"
    },
    {
      "constant": false,
      "inputs": [
        {
          "name": "_zrxToken",
          "type": "address"
        }
      ],
      "name": "setZRXToken",
      "outputs": [],
      "payable": false,
      "stateMutability": "nonpayable",
      "type": "function"
    },
    {
      "constant": false,
      "inputs": [
        {
          "name": "_proxy",
          "type": "address"
        }
      ],
      "name": "set0xTokenProxy",
      "outputs": [],
      "payable": false,
      "stateMutability": "nonpayable",
      "type": "function"
    },
    {
      "constant": false,
      "inputs": [
        {
          "name": "token",
          "type": "address"
        },
        {
          "name": "spender",
          "type": "address"
        },
        {
          "name": "value",
          "type": "uint256"
        }
      ],
      "name": "approveFor",
      "outputs": [
        {
          "name": "",
          "type": "bool"
        }
      ],
      "payable": false,
      "stateMutability": "nonpayable",
      "type": "function"
    },
    {
      "constant": false,
      "inputs": [
        {
          "name": "isDebug",
          "type": "bool"
        }
      ],
      "name": "toggleDebug",
      "outputs": [],
      "payable": false,
      "stateMutability": "nonpayable",
      "type": "function"
    }
  ],
  "bytecode": "0x60806040526000600160146101000a81548160ff0219169083151502179055503480156200002c57600080fd5b5060405160608062002c0883398101806040526200004e919081019062000171565b336000806101000a81548173ffffffffffffffffffffffffffffffffffffffff021916908373ffffffffffffffffffffffffffffffffffffffff16021790555082600260006101000a81548173ffffffffffffffffffffffffffffffffffffffff021916908373ffffffffffffffffffffffffffffffffffffffff16021790555081600360006101000a81548173ffffffffffffffffffffffffffffffffffffffff021916908373ffffffffffffffffffffffffffffffffffffffff16021790555080600460006101000a81548173ffffffffffffffffffffffffffffffffffffffff021916908373ffffffffffffffffffffffffffffffffffffffff16021790555050505062000215565b6000815190506200016b81620001fb565b92915050565b6000806000606084860312156200018757600080fd5b600062000197868287016200015a565b9350506020620001aa868287016200015a565b9250506040620001bd868287016200015a565b9150509250925092565b6000620001d482620001db565b9050919050565b600073ffffffffffffffffffffffffffffffffffffffff82169050919050565b6200020681620001c7565b81146200021257600080fd5b50565b6129e380620002256000396000f3fe608060405234801561001057600080fd5b50600436106101005760003560e01c80638da5cb5b11610097578063e17755c411610066578063e17755c4146102b0578063e4a72b13146102ce578063ed5c58f3146102ec578063f2fde38b1461030857610100565b80638da5cb5b146101ff57806398024a8b1461021d578063c7133eb21461024d578063c78429c41461027e57610100565b80634491645b116100d35780634491645b1461018b578063653bafd7146101a757806372e98a79146101c5578063743cc125146101e157610100565b806318caee52146101055780632332186d146101215780632b9917461461013f57806344292e881461016f575b600080fd5b61011f600480360361011a9190810190611b09565b610324565b005b6101296103c1565b6040516101369190612576565b60405180910390f35b61015960048036036101549190810190611b32565b6103d4565b6040516101669190612576565b60405180910390f35b61018960048036036101849190810190611b09565b610446565b005b6101a560048036036101a09190810190611c28565b6104e3565b005b6101af610559565b6040516101bc9190612456565b60405180910390f35b6101df60048036036101da9190810190611b09565b61057f565b005b6101e9610761565b6040516101f69190612456565b60405180910390f35b610207610787565b6040516102149190612456565b60405180910390f35b61023760048036036102329190810190611ce4565b6107ac565b6040516102449190612716565b60405180910390f35b61026760048036036102629190810190611c7a565b6107ca565b604051610275929190612471565b60405180910390f35b61029860048036036102939190810190611b81565b6108a2565b6040516102a7939291906124fa565b60405180910390f35b6102b86109ce565b6040516102c59190612456565b60405180910390f35b6102d66109f4565b6040516102e39190612456565b60405180910390f35b61030660048036036103019190810190611b09565b610a1a565b005b610322600480360361031d9190810190611b09565b610ab7565b005b6000809054906101000a900473ffffffffffffffffffffffffffffffffffffffff1673ffffffffffffffffffffffffffffffffffffffff163373ffffffffffffffffffffffffffffffffffffffff161461037d57600080fd5b80600260006101000a81548173ffffffffffffffffffffffffffffffffffffffff021916908373ffffffffffffffffffffffffffffffffffffffff16021790555050565b600160149054906101000a900460ff1681565b60008060009054906101000a900473ffffffffffffffffffffffffffffffffffffffff1673ffffffffffffffffffffffffffffffffffffffff163373ffffffffffffffffffffffffffffffffffffffff161461042f57600080fd5b61043a848484610c98565b50600190509392505050565b6000809054906101000a900473ffffffffffffffffffffffffffffffffffffffff1673ffffffffffffffffffffffffffffffffffffffff163373ffffffffffffffffffffffffffffffffffffffff161461049f57600080fd5b80600360006101000a81548173ffffffffffffffffffffffffffffffffffffffff021916908373ffffffffffffffffffffffffffffffffffffffff16021790555050565b6000809054906101000a900473ffffffffffffffffffffffffffffffffffffffff1673ffffffffffffffffffffffffffffffffffffffff163373ffffffffffffffffffffffffffffffffffffffff161461053c57600080fd5b80600160146101000a81548160ff02191690831515021790555050565b600460009054906101000a900473ffffffffffffffffffffffffffffffffffffffff1681565b6000809054906101000a900473ffffffffffffffffffffffffffffffffffffffff1673ffffffffffffffffffffffffffffffffffffffff163373ffffffffffffffffffffffffffffffffffffffff16146105d857600080fd5b600073ffffffffffffffffffffffffffffffffffffffff168173ffffffffffffffffffffffffffffffffffffffff161415801561066257506000809054906101000a900473ffffffffffffffffffffffffffffffffffffffff1673ffffffffffffffffffffffffffffffffffffffff168173ffffffffffffffffffffffffffffffffffffffff1614155b6106a1576040517f08c379a000000000000000000000000000000000000000000000000000000000815260040161069890612651565b60405180910390fd5b8073ffffffffffffffffffffffffffffffffffffffff16600160009054906101000a900473ffffffffffffffffffffffffffffffffffffffff1673ffffffffffffffffffffffffffffffffffffffff167f275474e6a50395ffcbf8e9ecf8250fc1a6baa73c802ea8809292f5021c9980bf60405160405180910390a380600160006101000a81548173ffffffffffffffffffffffffffffffffffffffff021916908373ffffffffffffffffffffffffffffffffffffffff16021790555050565b600260009054906101000a900473ffffffffffffffffffffffffffffffffffffffff1681565b6000809054906101000a900473ffffffffffffffffffffffffffffffffffffffff1681565b60006107c16107bb8584610d7b565b84610daf565b90509392505050565b60008060608361014001519050606084610160015190506000806020840151915060208301519050602484015195506024830151945063f47261b060e01b827bffffffffffffffffffffffffffffffffffffffffffffffffffffffff191614801561085a575063f47261b060e01b817bffffffffffffffffffffffffffffffffffffffffffffffffffffffff1916145b610899576040517f08c379a0000000000000000000000000000000000000000000000000000000008152600401610890906125b1565b60405180910390fd5b50505050915091565b6000806000600160009054906101000a900473ffffffffffffffffffffffffffffffffffffffff1673ffffffffffffffffffffffffffffffffffffffff163373ffffffffffffffffffffffffffffffffffffffff1614610937576040517f08c379a000000000000000000000000000000000000000000000000000000000815260040161092e906125f1565b60405180910390fd5b60006109568660008151811061094957fe5b60200260200101516107ca565b809250819550505061096b8982898989610dc3565b8094508193505050868210156109b6576040517f08c379a00000000000000000000000000000000000000000000000000000000081526004016109ad906126b1565b60405180910390fd5b6109c1848985611303565b5050955095509592505050565b600360009054906101000a900473ffffffffffffffffffffffffffffffffffffffff1681565b600160009054906101000a900473ffffffffffffffffffffffffffffffffffffffff1681565b6000809054906101000a900473ffffffffffffffffffffffffffffffffffffffff1673ffffffffffffffffffffffffffffffffffffffff163373ffffffffffffffffffffffffffffffffffffffff1614610a7357600080fd5b80600460006101000a81548173ffffffffffffffffffffffffffffffffffffffff021916908373ffffffffffffffffffffffffffffffffffffffff16021790555050565b6000809054906101000a900473ffffffffffffffffffffffffffffffffffffffff1673ffffffffffffffffffffffffffffffffffffffff163373ffffffffffffffffffffffffffffffffffffffff1614610b1057600080fd5b600073ffffffffffffffffffffffffffffffffffffffff168173ffffffffffffffffffffffffffffffffffffffff1614158015610b9b5750600160009054906101000a900473ffffffffffffffffffffffffffffffffffffffff1673ffffffffffffffffffffffffffffffffffffffff168173ffffffffffffffffffffffffffffffffffffffff1614155b610bda576040517f08c379a0000000000000000000000000000000000000000000000000000000008152600401610bd190612691565b60405180910390fd5b8073ffffffffffffffffffffffffffffffffffffffff166000809054906101000a900473ffffffffffffffffffffffffffffffffffffffff1673ffffffffffffffffffffffffffffffffffffffff167f8be0079c531659141344cd1fd0a4f28419497f9722a3daafe3b4186f6b6457e060405160405180910390a3806000806101000a81548173ffffffffffffffffffffffffffffffffffffffff021916908373ffffffffffffffffffffffffffffffffffffffff16021790555050565b60008373ffffffffffffffffffffffffffffffffffffffff1663095ea7b384846040518363ffffffff1660e01b8152600401610cd59291906124d1565b600060405180830381600087803b158015610cef57600080fd5b505af1158015610d03573d6000803e3d6000fd5b505050503d60008114610d1d5760208114610d2757600080fd5b6000199150610d33565b60206000803e60005191505b5080610d74576040517f08c379a0000000000000000000000000000000000000000000000000000000008152600401610d6b90612611565b60405180910390fd5b9392505050565b600080831415610d8e5760009050610da9565b818302905081838281610d9d57fe5b0414610da557fe5b8090505b92915050565b6000818381610dba57fe5b04905092915050565b6000806000809050600086905060008090505b8651811015610f26576000811115610e1f5786600081518110610df557fe5b60200260200101516101400151878281518110610e0e57fe5b602002602001015161014001819052505b600082118015610e4657506000878281518110610e3857fe5b602002602001015160e00151115b15610f1957868181518110610e5757fe5b602002602001015160a001518210610ec657610e93878281518110610e7857fe5b602002602001015160e00151846113e690919063ffffffff16565b9250610ebf878281518110610ea457fe5b602002602001015160a001518361140090919063ffffffff16565b9150610f18565b610f11610f0283898481518110610ed957fe5b602002602001015160a001518a8581518110610ef157fe5b602002602001015160e00151611417565b846113e690919063ffffffff16565b9250600091505b5b8080600101915050610dd6565b506000821115610f6057610f5e600360009054906101000a900473ffffffffffffffffffffffffffffffffffffffff168a30856114c5565b505b60008873ffffffffffffffffffffffffffffffffffffffff1663dd62ed3e30600460009054906101000a900473ffffffffffffffffffffffffffffffffffffffff166040518363ffffffff1660e01b8152600401610fbf929190612471565b60206040518083038186803b158015610fd757600080fd5b505afa158015610feb573d6000803e3d6000fd5b505050506040513d601f19601f8201168201806040525061100f9190810190611cbb565b9050878110156110815760008111156110525761105089600460009054906101000a900473ffffffffffffffffffffffffffffffffffffffff166000610c98565b505b61107f89600460009054906101000a900473ffffffffffffffffffffffffffffffffffffffff168a610c98565b505b611089611641565b60018851111561114b57600260009054906101000a900473ffffffffffffffffffffffffffffffffffffffff1673ffffffffffffffffffffffffffffffffffffffff1663dd1c7d18898b8a6040518463ffffffff1660e01b81526004016110f293929190612531565b608060405180830381600087803b15801561110c57600080fd5b505af1158015611120573d6000803e3d6000fd5b505050506040513d601f19601f820116820180604052506111449190810190611c51565b9050611227565b600260009054906101000a900473ffffffffffffffffffffffffffffffffffffffff1673ffffffffffffffffffffffffffffffffffffffff16633e228bae8960008151811061119657fe5b60200260200101518b8a6000815181106111ac57fe5b60200260200101516040518463ffffffff1660e01b81526004016111d2939291906126d1565b608060405180830381600087803b1580156111ec57600080fd5b505af1158015611200573d6000803e3d6000fd5b505050506040513d601f19601f820116820180604052506112249190810190611c51565b90505b60008411801561123a5750838160600151105b1561128457611282600360009054906101000a900473ffffffffffffffffffffffffffffffffffffffff168c61127d84606001518861140090919063ffffffff16565b611303565b505b600160149054906101000a900460ff16156112e7577fc83608b603932ec38fc22f98763843ef04de86c461373e9214a889914cfce66781600001518260200151836040015184606001516040516112de9493929190612731565b60405180910390a15b8060200151955080600001519450505050509550959350505050565b60008373ffffffffffffffffffffffffffffffffffffffff1663a9059cbb84846040518363ffffffff1660e01b81526004016113409291906124d1565b600060405180830381600087803b15801561135a57600080fd5b505af115801561136e573d6000803e3d6000fd5b505050503d60008114611388576020811461139257600080fd5b600019915061139e565b60206000803e60005191505b50806113df576040517f08c379a00000000000000000000000000000000000000000000000000000000081526004016113d690612671565b60405180910390fd5b9392505050565b60008183019050828110156113f757fe5b80905092915050565b60008282111561140c57fe5b818303905092915050565b600080831161145b576040517f08c379a0000000000000000000000000000000000000000000000000000000008152600401611452906125d1565b60405180910390fd5b6114668484846115ab565b156114a6576040517f08c379a000000000000000000000000000000000000000000000000000000000815260040161149d90612631565b60405180910390fd5b6114b96114b38584610d7b565b84610daf565b90508090509392505050565b60008473ffffffffffffffffffffffffffffffffffffffff166323b872dd8585856040518463ffffffff1660e01b81526004016115049392919061249a565b600060405180830381600087803b15801561151e57600080fd5b505af1158015611532573d6000803e3d6000fd5b505050503d6000811461154c576020811461155657600080fd5b6000199150611562565b60206000803e60005191505b50806115a3576040517f08c379a000000000000000000000000000000000000000000000000000000000815260040161159a90612591565b60405180910390fd5b949350505050565b60008083116115ef576040517f08c379a00000000000000000000000000000000000000000000000000000000081526004016115e6906125d1565b60405180910390fd5b60008214806115fe5750600084145b1561160c576000905061163a565b6000838061161657fe5b85840990506116258584610d7b565b6116316103e883610d7b565b10159150819150505b9392505050565b6040518060800160405280600081526020016000815260200160008152602001600081525090565b60008135905061167881612964565b92915050565b600082601f83011261168f57600080fd5b81356116a261169d826127a3565b612776565b9150818183526020840193506020810190508360005b838110156116e857813586016116ce888261177b565b8452602084019350602083019250506001810190506116b8565b5050505092915050565b600082601f83011261170357600080fd5b8135611716611711826127cb565b612776565b9150818183526020840193506020810190508360005b8381101561175c57813586016117428882611843565b84526020840193506020830192505060018101905061172c565b5050505092915050565b6000813590506117758161297b565b92915050565b600082601f83011261178c57600080fd5b813561179f61179a826127f3565b612776565b915080825260208301602083018583830111156117bb57600080fd5b6117c6838284612911565b50505092915050565b6000608082840312156117e157600080fd5b6117eb6080612776565b905060006117fb84828501611af4565b600083015250602061180f84828501611af4565b602083015250604061182384828501611af4565b604083015250606061183784828501611af4565b60608301525092915050565b6000610180828403121561185657600080fd5b611861610180612776565b9050600061187184828501611669565b600083015250602061188584828501611669565b602083015250604061189984828501611669565b60408301525060606118ad84828501611669565b60608301525060806118c184828501611adf565b60808301525060a06118d584828501611adf565b60a08301525060c06118e984828501611adf565b60c08301525060e06118fd84828501611adf565b60e08301525061010061191284828501611adf565b6101008301525061012061192884828501611adf565b6101208301525061014082013567ffffffffffffffff81111561194a57600080fd5b6119568482850161177b565b6101408301525061016082013567ffffffffffffffff81111561197857600080fd5b6119848482850161177b565b6101608301525092915050565b600061018082840312156119a457600080fd5b6119af610180612776565b905060006119bf84828501611669565b60008301525060206119d384828501611669565b60208301525060406119e784828501611669565b60408301525060606119fb84828501611669565b6060830152506080611a0f84828501611adf565b60808301525060a0611a2384828501611adf565b60a08301525060c0611a3784828501611adf565b60c08301525060e0611a4b84828501611adf565b60e083015250610100611a6084828501611adf565b61010083015250610120611a7684828501611adf565b6101208301525061014082013567ffffffffffffffff811115611a9857600080fd5b611aa48482850161177b565b6101408301525061016082013567ffffffffffffffff811115611ac657600080fd5b611ad28482850161177b565b6101608301525092915050565b600081359050611aee81612992565b92915050565b600081519050611b0381612992565b92915050565b600060208284031215611b1b57600080fd5b6000611b2984828501611669565b91505092915050565b600080600060608486031215611b4757600080fd5b6000611b5586828701611669565b9350506020611b6686828701611669565b9250506040611b7786828701611adf565b9150509250925092565b600080600080600060a08688031215611b9957600080fd5b6000611ba788828901611669565b9550506020611bb888828901611669565b9450506040611bc988828901611adf565b935050606086013567ffffffffffffffff811115611be657600080fd5b611bf2888289016116f2565b925050608086013567ffffffffffffffff811115611c0f57600080fd5b611c1b8882890161167e565b9150509295509295909350565b600060208284031215611c3a57600080fd5b6000611c4884828501611766565b91505092915050565b600060808284031215611c6357600080fd5b6000611c71848285016117cf565b91505092915050565b600060208284031215611c8c57600080fd5b600082013567ffffffffffffffff811115611ca657600080fd5b611cb284828501611991565b91505092915050565b600060208284031215611ccd57600080fd5b6000611cdb84828501611af4565b91505092915050565b600080600060608486031215611cf957600080fd5b6000611d0786828701611adf565b9350506020611d1886828701611adf565b9250506040611d2986828701611adf565b9150509250925092565b6000611d3f8383611e72565b905092915050565b6000611d538383612222565b905092915050565b611d64816128c9565b82525050565b611d73816128c9565b82525050565b6000611d8482612839565b611d8e8185612874565b935083602082028501611da08561281f565b8060005b85811015611ddc5784840389528151611dbd8582611d33565b9450611dc88361285a565b925060208a01995050600181019050611da4565b50829750879550505050505092915050565b6000611df982612844565b611e038185612885565b935083602082028501611e158561282c565b8060005b85811015611e515784840389528151611e328582611d47565b9450611e3d83612867565b925060208a01995050600181019050611e19565b50829750879550505050505092915050565b611e6c816128db565b82525050565b6000611e7d8261284f565b611e878185612896565b9350611e97818560208601612920565b611ea081612953565b840191505092915050565b6000611eb68261284f565b611ec081856128a7565b9350611ed0818560208601612920565b611ed981612953565b840191505092915050565b6000611ef16018836128b8565b91507f65697032305472616e7366657246726f6d206661696c656400000000000000006000830152602082019050919050565b6000611f31603a836128b8565b91507f425a78546f307856323a3a6765745632546f6b656e733a203078205632206f7260008301527f64657273206d7573742075736520455243323020746f6b656e730000000000006020830152604082019050919050565b6000611f976010836128b8565b91507f4449564953494f4e5f42595f5a45524f000000000000000000000000000000006000830152602082019050919050565b6000611fd76029836128b8565b91507f6f6e6c7920625a7820636f6e7472616374732063616e2063616c6c207468697360008301527f2066756e6374696f6e00000000000000000000000000000000000000000000006020830152604082019050919050565b600061203d6013836128b8565b91507f6569703230417070726f7665206661696c6564000000000000000000000000006000830152602082019050919050565b600061207d600e836128b8565b91507f524f554e44494e475f4552524f520000000000000000000000000000000000006000830152602082019050919050565b60006120bd6022836128b8565b91507f7472616e73666572425a784f776e6572736869703a3a756e617574686f72697a60008301527f65640000000000000000000000000000000000000000000000000000000000006020830152604082019050919050565b60006121236014836128b8565b91507f65697032305472616e73666572206661696c65640000000000000000000000006000830152602082019050919050565b6000612163601f836128b8565b91507f7472616e736665724f776e6572736869703a3a756e617574686f72697a6564006000830152602082019050919050565b60006121a36046836128b8565b91507f425a78546f307856323a3a74616b65307854726164653a20736f75726365546f60008301527f6b656e55736564416d6f756e74203c20736f75726365546f6b656e416d6f756e60208301527f74546f55736500000000000000000000000000000000000000000000000000006040830152606082019050919050565b60006101808301600083015161223b6000860182611d5b565b50602083015161224e6020860182611d5b565b5060408301516122616040860182611d5b565b5060608301516122746060860182611d5b565b5060808301516122876080860182612438565b5060a083015161229a60a0860182612438565b5060c08301516122ad60c0860182612438565b5060e08301516122c060e0860182612438565b506101008301516122d5610100860182612438565b506101208301516122ea610120860182612438565b506101408301518482036101408601526123048282611e72565b9150506101608301518482036101608601526123208282611e72565b9150508091505092915050565b6000610180830160008301516123466000860182611d5b565b5060208301516123596020860182611d5b565b50604083015161236c6040860182611d5b565b50606083015161237f6060860182611d5b565b5060808301516123926080860182612438565b5060a08301516123a560a0860182612438565b5060c08301516123b860c0860182612438565b5060e08301516123cb60e0860182612438565b506101008301516123e0610100860182612438565b506101208301516123f5610120860182612438565b5061014083015184820361014086015261240f8282611e72565b91505061016083015184820361016086015261242b8282611e72565b9150508091505092915050565b61244181612907565b82525050565b61245081612907565b82525050565b600060208201905061246b6000830184611d6a565b92915050565b60006040820190506124866000830185611d6a565b6124936020830184611d6a565b9392505050565b60006060820190506124af6000830186611d6a565b6124bc6020830185611d6a565b6124c96040830184612447565b949350505050565b60006040820190506124e66000830185611d6a565b6124f36020830184612447565b9392505050565b600060608201905061250f6000830186611d6a565b61251c6020830185612447565b6125296040830184612447565b949350505050565b6000606082019050818103600083015261254b8186611dee565b905061255a6020830185612447565b818103604083015261256c8184611d79565b9050949350505050565b600060208201905061258b6000830184611e63565b92915050565b600060208201905081810360008301526125aa81611ee4565b9050919050565b600060208201905081810360008301526125ca81611f24565b9050919050565b600060208201905081810360008301526125ea81611f8a565b9050919050565b6000602082019050818103600083015261260a81611fca565b9050919050565b6000602082019050818103600083015261262a81612030565b9050919050565b6000602082019050818103600083015261264a81612070565b9050919050565b6000602082019050818103600083015261266a816120b0565b9050919050565b6000602082019050818103600083015261268a81612116565b9050919050565b600060208201905081810360008301526126aa81612156565b9050919050565b600060208201905081810360008301526126ca81612196565b9050919050565b600060608201905081810360008301526126eb818661232d565b90506126fa6020830185612447565b818103604083015261270c8184611eab565b9050949350505050565b600060208201905061272b6000830184612447565b92915050565b60006080820190506127466000830187612447565b6127536020830186612447565b6127606040830185612447565b61276d6060830184612447565b95945050505050565b6000604051905081810181811067ffffffffffffffff8211171561279957600080fd5b8060405250919050565b600067ffffffffffffffff8211156127ba57600080fd5b602082029050602081019050919050565b600067ffffffffffffffff8211156127e257600080fd5b602082029050602081019050919050565b600067ffffffffffffffff82111561280a57600080fd5b601f19601f8301169050602081019050919050565b6000602082019050919050565b6000602082019050919050565b600081519050919050565b600081519050919050565b600081519050919050565b6000602082019050919050565b6000602082019050919050565b600082825260208201905092915050565b600082825260208201905092915050565b600082825260208201905092915050565b600082825260208201905092915050565b600082825260208201905092915050565b60006128d4826128e7565b9050919050565b60008115159050919050565b600073ffffffffffffffffffffffffffffffffffffffff82169050919050565b6000819050919050565b82818337600083830152505050565b60005b8381101561293e578082015181840152602081019050612923565b8381111561294d576000848401525b50505050565b6000601f19601f8301169050919050565b61296d816128c9565b811461297857600080fd5b50565b612984816128db565b811461298f57600080fd5b50565b61299b81612907565b81146129a657600080fd5b5056fea265627a7a723058203681de723baba4ea88e52866c45c39c8e7fcd9ac203c6a9cfd37026bff72ca1a6c6578706572696d656e74616cf50037",
  "source": "/**\n * Copyright 2017-2019, bZeroX, LLC. All Rights Reserved.\n * Licensed under the Apache License, Version 2.0.\n */\n\npragma solidity 0.5.8;\npragma experimental ABIEncoderV2;\n\nimport \"../tokens/EIP20.sol\";\nimport \"../tokens/EIP20Wrapper.sol\";\nimport \"../modifiers/BZxOwnable.sol\";\n\nimport \"./ExchangeV2Interface.sol\";\nimport \"./BZxTo0xShared.sol\";\n\n\ncontract BZxTo0xV2 is BZxTo0xShared, EIP20Wrapper, BZxOwnable {\n    using SafeMath for uint256;\n\n    event LogFillResults(\n        uint256 makerAssetFilledAmount,\n        uint256 takerAssetFilledAmount,\n        uint256 makerFeePaid,\n        uint256 takerFeePaid\n    );\n\n    bool public DEBUG = false;\n\n    address public exchangeV2Contract;\n    address public zrxTokenContract;\n    address public erc20ProxyContract;\n\n    constructor(\n        address _exchangeV2,\n        address _zrxToken,\n        address _proxy)\n        public\n    {\n        exchangeV2Contract = _exchangeV2;\n        zrxTokenContract = _zrxToken;\n        erc20ProxyContract = _proxy;\n    }\n\n    function()\n        external {\n        revert();\n    }\n\n    // 0xc78429c4 == \"take0xV2Trade(address,address,uint256,(address,address,address,address,uint256,uint256,uint256,uint256,uint256,uint256,bytes,bytes)[],bytes[])\"\n    function take0xV2Trade(\n        address trader,\n        address vaultAddress,\n        uint256 sourceTokenAmountToUse,\n        ExchangeV2Interface.OrderV2[] memory orders0x, // Array of 0x V2 order structs\n        bytes[] memory signatures0x) // Array of signatures for each of the V2 orders\n        public\n        onlyBZx\n        returns (\n            address destTokenAddress,\n            uint256 destTokenAmount,\n            uint256 sourceTokenUsedAmount)\n    {\n        address sourceTokenAddress;\n\n        //destTokenAddress==makerToken, sourceTokenAddress==takerToken\n        (destTokenAddress, sourceTokenAddress) = getV2Tokens(orders0x[0]);\n\n        (sourceTokenUsedAmount, destTokenAmount) = _take0xV2Trade(\n            trader,\n            sourceTokenAddress,\n            sourceTokenAmountToUse,\n            orders0x,\n            signatures0x);\n\n        if (sourceTokenUsedAmount < sourceTokenAmountToUse) {\n            // all sourceToken has to be traded\n            revert(\"BZxTo0xV2::take0xTrade: sourceTokenUsedAmount < sourceTokenAmountToUse\");\n        }\n\n        // transfer the destToken to the vault\n        eip20Transfer(\n            destTokenAddress,\n            vaultAddress,\n            destTokenAmount);\n    }\n\n    /// @dev Calculates partial value given a numerator and denominator.\n    /// @param numerator Numerator.\n    /// @param denominator Denominator.\n    /// @param target Value to calculate partial of.\n    /// @return Partial value of target.\n    function getPartialAmount(uint256 numerator, uint256 denominator, uint256 target)\n        public\n        pure\n        returns (uint256)\n    {\n        return SafeMath.div(SafeMath.mul(numerator, target), denominator);\n    }\n\n    /// @dev Extracts the maker and taker token addresses from the 0x V2 order object.\n    /// @param order 0x V2 order object.\n    /// @return makerTokenAddress and takerTokenAddress.\n    function getV2Tokens(\n        ExchangeV2Interface.OrderV2 memory order)\n        public\n        pure\n        returns (\n            address makerTokenAddress,\n            address takerTokenAddress)\n    {\n        bytes memory makerAssetData = order.makerAssetData;\n        bytes memory takerAssetData = order.takerAssetData;\n        bytes4 makerProxyID;\n        bytes4 takerProxyID;\n\n        // example data: 0xf47261b00000000000000000000000001dc4c1cefef38a777b15aa20260a54e584b16c48\n        assembly {\n            makerProxyID := mload(add(makerAssetData, 32))\n            takerProxyID := mload(add(takerAssetData, 32))\n\n            makerTokenAddress := mload(add(makerAssetData, 36))\n            takerTokenAddress := mload(add(takerAssetData, 36))\n        }\n\n        // ERC20 Proxy ID -> bytes4(keccak256(\"ERC20Token(address)\")) = 0xf47261b0\n        require(makerProxyID == 0xf47261b0 && takerProxyID == 0xf47261b0, \"BZxTo0xV2::getV2Tokens: 0x V2 orders must use ERC20 tokens\");\n    }\n\n    function set0xV2Exchange (\n        address _exchange)\n        public\n        onlyOwner\n    {\n        exchangeV2Contract = _exchange;\n    }\n\n    function setZRXToken (\n        address _zrxToken)\n        public\n        onlyOwner\n    {\n        zrxTokenContract = _zrxToken;\n    }\n\n    function set0xTokenProxy (\n        address _proxy)\n        public\n        onlyOwner\n    {\n        erc20ProxyContract = _proxy;\n    }\n\n    function approveFor (\n        address token,\n        address spender,\n        uint256 value)\n        public\n        onlyOwner\n        returns (bool)\n    {\n        eip20Approve(\n            token,\n            spender,\n            value);\n\n        return true;\n    }\n\n    function toggleDebug (\n        bool isDebug)\n        public\n        onlyOwner\n    {\n        DEBUG = isDebug;\n    }\n\n    function _take0xV2Trade(\n        address trader,\n        address sourceTokenAddress,\n        uint256 sourceTokenAmountToUse,\n        ExchangeV2Interface.OrderV2[] memory orders0x, // Array of 0x V2 order structs\n        bytes[] memory signatures0x)\n        internal\n        returns (uint256 sourceTokenUsedAmount, uint256 destTokenAmount)\n    {\n        uint256 zrxTokenAmount = 0;\n        uint256 takerAssetRemaining = sourceTokenAmountToUse;\n        for (uint256 i = 0; i < orders0x.length; i++) {\n            // Note: takerAssetData (sourceToken) is confirmed to be the same in 0x for batch orders\n            // To confirm makerAssetData is the same for each order, rather than doing a more expensive per order bytes\n            // comparison, we will simply set makerAssetData the same in each order to the first value observed. The 0x\n            // trade will fail for invalid orders.\n            if (i > 0)\n                orders0x[i].makerAssetData = orders0x[0].makerAssetData;\n\n            // calculate required takerFee\n            if (takerAssetRemaining > 0 && orders0x[i].takerFee > 0) { // takerFee\n                if (takerAssetRemaining >= orders0x[i].takerAssetAmount) {\n                    zrxTokenAmount = zrxTokenAmount.add(orders0x[i].takerFee);\n                    takerAssetRemaining = takerAssetRemaining.sub(orders0x[i].takerAssetAmount);\n                } else {\n                    zrxTokenAmount = zrxTokenAmount.add(_safeGetPartialAmountFloor(\n                        takerAssetRemaining,\n                        orders0x[i].takerAssetAmount,\n                        orders0x[i].takerFee\n                    ));\n                    takerAssetRemaining = 0;\n                }\n            }\n        }\n\n        if (zrxTokenAmount > 0) {\n            // The 0x erc20ProxyContract already has unlimited transfer allowance for ZRX from this contract (set during deployment of this contract)\n            eip20TransferFrom(\n                zrxTokenContract,\n                trader,\n                address(this),\n                zrxTokenAmount);\n        }\n\n        // Make sure there is enough allowance for 0x Exchange Proxy to transfer the sourceToken needed for the 0x trade\n        uint256 tempAllowance = EIP20(sourceTokenAddress).allowance(address(this), erc20ProxyContract);\n        if (tempAllowance < sourceTokenAmountToUse) {\n            if (tempAllowance > 0) {\n                // reset approval to 0\n                eip20Approve(\n                    sourceTokenAddress,\n                    erc20ProxyContract,\n                    0);\n            }\n\n            eip20Approve(\n                sourceTokenAddress,\n                erc20ProxyContract,\n                sourceTokenAmountToUse);\n        }\n\n        ExchangeV2Interface.FillResults memory fillResults;\n        if (orders0x.length > 1) {\n            fillResults = ExchangeV2Interface(exchangeV2Contract).marketSellOrdersNoThrow(\n                orders0x,\n                sourceTokenAmountToUse,\n                signatures0x);\n        } else {\n            fillResults = ExchangeV2Interface(exchangeV2Contract).fillOrderNoThrow(\n                orders0x[0],\n                sourceTokenAmountToUse,\n                signatures0x[0]);\n        }\n\n        if (zrxTokenAmount > 0 && fillResults.takerFeePaid < zrxTokenAmount) {\n            // refund unused ZRX token (if any)\n            eip20Transfer(\n                zrxTokenContract,\n                trader,\n                zrxTokenAmount.sub(fillResults.takerFeePaid));\n        }\n\n        if (DEBUG) {\n            emit LogFillResults(\n                fillResults.makerAssetFilledAmount,\n                fillResults.takerAssetFilledAmount,\n                fillResults.makerFeePaid,\n                fillResults.takerFeePaid\n            );\n        }\n\n        sourceTokenUsedAmount = fillResults.takerAssetFilledAmount;\n        destTokenAmount = fillResults.makerAssetFilledAmount;\n    }\n}",
  "sourcePath": "/workspace/Contract-Fillable-0x-Liquidity-For-Fulcrum/blockchain/contracts/zeroex/BZxTo0xV2.sol",
  "compiler": {
    "name": "solc",
    "version": "0.5.8+commit.23d335f2.Emscripten.clang"
  },
  "schemaVersion": "3.0.11",
  "updatedAt": "2019-08-11T05:26:19.642Z",
  "devdoc": {
    "methods": {
      "getPartialAmount(uint256,uint256,uint256)": {
        "details": "Calculates partial value given a numerator and denominator.",
        "params": {
          "denominator": "Denominator.",
          "numerator": "Numerator.",
          "target": "Value to calculate partial of."
        },
        "return": "Partial value of target."
      },
      "getV2Tokens((address,address,address,address,uint256,uint256,uint256,uint256,uint256,uint256,bytes,bytes))": {
        "details": "Extracts the maker and taker token addresses from the 0x V2 order object.",
        "params": {
          "order": "0x V2 order object."
        },
        "return": "makerTokenAddress and takerTokenAddress."
      },
      "transferBZxOwnership(address)": {
        "details": "Allows the current owner to transfer the bZx contract owner to a new contract address",
        "params": {
          "newBZxContractAddress": "The bZx contract address to transfer ownership to."
        }
      },
      "transferOwnership(address)": {
        "details": "Allows the current owner to transfer control of the contract to a newOwner.",
        "params": {
          "newOwner": "The address to transfer ownership to. This overrides transferOwnership in Ownable to prevent setting the new owner the same as the bZxContract"
        }
      }
    }
  },
  "userdoc": {
    "methods": {}
  }
}